{
  "contractName": "Exchange",
  "abi": [
    {
      "constant": true,
      "inputs": [],
      "name": "getEthBalanceInWei",
      "outputs": [
        {
          "name": "",
          "type": "uint256"
        }
      ],
      "payable": false,
      "stateMutability": "view",
      "type": "function"
    },
    {
      "constant": false,
      "inputs": [
        {
          "name": "symbolName",
          "type": "string"
        },
        {
          "name": "amount",
          "type": "uint256"
        }
      ],
      "name": "depositToken",
      "outputs": [],
      "payable": false,
      "stateMutability": "nonpayable",
      "type": "function"
    },
    {
      "constant": true,
      "inputs": [
        {
          "name": "symbolName",
          "type": "string"
        }
      ],
      "name": "getBalance",
      "outputs": [
        {
          "name": "",
          "type": "uint256"
        }
      ],
      "payable": false,
      "stateMutability": "view",
      "type": "function"
    },
    {
      "constant": false,
      "inputs": [],
      "name": "depositEither",
      "outputs": [],
      "payable": true,
      "stateMutability": "payable",
      "type": "function"
    },
    {
      "constant": false,
      "inputs": [
        {
          "name": "symbolName",
          "type": "string"
        },
        {
          "name": "priceInWei",
          "type": "uint256"
        },
        {
          "name": "amount",
          "type": "uint256"
        }
      ],
      "name": "buyToken",
      "outputs": [],
      "payable": false,
      "stateMutability": "nonpayable",
      "type": "function"
    },
    {
      "constant": false,
      "inputs": [
        {
          "name": "symbolName",
          "type": "string"
        }
      ],
      "name": "getSymbolIndex",
      "outputs": [
        {
          "name": "",
          "type": "uint8"
        }
      ],
      "payable": false,
      "stateMutability": "nonpayable",
      "type": "function"
    },
    {
      "constant": false,
      "inputs": [
        {
          "name": "tokenIndex",
          "type": "uint8"
        },
        {
          "name": "priceInWei",
          "type": "uint256"
        },
        {
          "name": "amount",
          "type": "uint256"
        },
        {
          "name": "who",
          "type": "address"
        }
      ],
      "name": "addBuyOffer",
      "outputs": [],
      "payable": false,
      "stateMutability": "nonpayable",
      "type": "function"
    },
    {
      "constant": false,
      "inputs": [],
      "name": "acceptOwnership",
      "outputs": [],
      "payable": false,
      "stateMutability": "nonpayable",
      "type": "function"
    },
    {
      "constant": true,
      "inputs": [],
      "name": "owner",
      "outputs": [
        {
          "name": "",
          "type": "address"
        }
      ],
      "payable": false,
      "stateMutability": "view",
      "type": "function"
    },
    {
      "constant": false,
      "inputs": [
        {
          "name": "symbolName",
          "type": "string"
        }
      ],
      "name": "hasToken",
      "outputs": [
        {
          "name": "",
          "type": "bool"
        }
      ],
      "payable": false,
      "stateMutability": "nonpayable",
      "type": "function"
    },
    {
      "constant": true,
      "inputs": [],
      "name": "getTokens",
      "outputs": [
        {
          "name": "names",
          "type": "bytes32[]"
        },
        {
          "name": "addresses",
          "type": "address[]"
        }
      ],
      "payable": false,
      "stateMutability": "view",
      "type": "function"
    },
    {
      "constant": false,
      "inputs": [
        {
          "name": "symbolName",
          "type": "string"
        },
        {
          "name": "erc20TokenAddress",
          "type": "address"
        }
      ],
      "name": "addToken",
      "outputs": [],
      "payable": false,
      "stateMutability": "nonpayable",
      "type": "function"
    },
    {
      "constant": false,
      "inputs": [
        {
          "name": "amountInWei",
          "type": "uint256"
        }
      ],
      "name": "withdrawEither",
      "outputs": [],
      "payable": false,
      "stateMutability": "nonpayable",
      "type": "function"
    },
    {
      "constant": false,
      "inputs": [
        {
          "name": "symbolName",
          "type": "string"
        },
        {
          "name": "amount",
          "type": "uint256"
        }
      ],
      "name": "withdrawToken",
      "outputs": [],
      "payable": false,
      "stateMutability": "nonpayable",
      "type": "function"
    },
    {
      "constant": false,
      "inputs": [
        {
          "name": "source",
          "type": "string"
        }
      ],
      "name": "stringToBytes32",
      "outputs": [
        {
          "name": "result",
          "type": "bytes32"
        }
      ],
      "payable": false,
      "stateMutability": "nonpayable",
      "type": "function"
    },
    {
      "constant": true,
      "inputs": [],
      "name": "newOwner",
      "outputs": [
        {
          "name": "",
          "type": "address"
        }
      ],
      "payable": false,
      "stateMutability": "view",
      "type": "function"
    },
    {
      "constant": false,
      "inputs": [
        {
          "name": "_newOwner",
          "type": "address"
        }
      ],
      "name": "transferOwnership",
      "outputs": [],
      "payable": false,
      "stateMutability": "nonpayable",
      "type": "function"
    },
    {
      "inputs": [],
      "payable": false,
      "stateMutability": "nonpayable",
      "type": "constructor"
    },
    {
      "anonymous": false,
      "inputs": [
        {
          "indexed": true,
          "name": "_from",
          "type": "address"
        },
        {
          "indexed": true,
          "name": "_symbolIndex",
          "type": "uint256"
        },
        {
          "indexed": false,
          "name": "_amount",
          "type": "uint256"
        },
        {
          "indexed": false,
          "name": "_time",
          "type": "uint256"
        }
      ],
      "name": "TokenDeposit",
      "type": "event"
    },
    {
      "anonymous": false,
      "inputs": [
        {
          "indexed": true,
          "name": "_to",
          "type": "address"
        },
        {
          "indexed": true,
          "name": "_symbolIndex",
          "type": "uint256"
        },
        {
          "indexed": false,
          "name": "_amount",
          "type": "uint256"
        },
        {
          "indexed": false,
          "name": "_time",
          "type": "uint256"
        }
      ],
      "name": "TokenWithdrawal",
      "type": "event"
    },
    {
      "anonymous": false,
      "inputs": [
        {
          "indexed": true,
          "name": "_from",
          "type": "address"
        },
        {
          "indexed": false,
          "name": "_amount",
          "type": "uint256"
        },
        {
          "indexed": false,
          "name": "_time",
          "type": "uint256"
        }
      ],
      "name": "EthDeposit",
      "type": "event"
    },
    {
      "anonymous": false,
      "inputs": [
        {
          "indexed": true,
          "name": "_from",
          "type": "address"
        },
        {
          "indexed": false,
          "name": "_amount",
          "type": "uint256"
        },
        {
          "indexed": false,
          "name": "_time",
          "type": "uint256"
        }
      ],
      "name": "EthWithdrawal",
      "type": "event"
    },
    {
      "anonymous": false,
      "inputs": [
        {
          "indexed": true,
          "name": "_symbolIndex",
          "type": "uint256"
        },
        {
          "indexed": false,
          "name": "_who",
          "type": "address"
        },
        {
          "indexed": false,
          "name": "_amount",
          "type": "uint256"
        },
        {
          "indexed": false,
          "name": "_priceInWei",
          "type": "uint256"
        },
        {
          "indexed": false,
          "name": "_orederKey",
          "type": "uint256"
        }
      ],
      "name": "LimitSellOrderCreated",
      "type": "event"
    },
    {
      "anonymous": false,
      "inputs": [
        {
          "indexed": true,
          "name": "_symbolIndex",
          "type": "uint256"
        },
        {
          "indexed": false,
          "name": "_amount",
          "type": "uint256"
        },
        {
          "indexed": false,
          "name": "_priceInWei",
          "type": "uint256"
        },
        {
          "indexed": false,
          "name": "_orederKey",
          "type": "uint256"
        }
      ],
      "name": "SellOrderFullfilled",
      "type": "event"
    },
    {
      "anonymous": false,
      "inputs": [
        {
          "indexed": true,
          "name": "_symbolIndex",
          "type": "uint256"
        },
        {
          "indexed": false,
          "name": "_priceInWei",
          "type": "uint256"
        },
        {
          "indexed": false,
          "name": "_orederKey",
          "type": "uint256"
        }
      ],
      "name": "SellOrderCancelled",
      "type": "event"
    },
    {
      "anonymous": false,
      "inputs": [
        {
          "indexed": true,
          "name": "_symbolIndex",
          "type": "uint256"
        },
        {
          "indexed": false,
          "name": "_who",
          "type": "address"
        },
        {
          "indexed": false,
          "name": "_amount",
          "type": "uint256"
        },
        {
          "indexed": false,
          "name": "_priceInWei",
          "type": "uint256"
        },
        {
          "indexed": false,
          "name": "_orederKey",
          "type": "uint256"
        }
      ],
      "name": "LimitBuyOrderCreated",
      "type": "event"
    },
    {
      "anonymous": false,
      "inputs": [
        {
          "indexed": true,
          "name": "_symbolIndex",
          "type": "uint256"
        },
        {
          "indexed": false,
          "name": "_amount",
          "type": "uint256"
        },
        {
          "indexed": false,
          "name": "_priceInWei",
          "type": "uint256"
        },
        {
          "indexed": false,
          "name": "_orederKey",
          "type": "uint256"
        }
      ],
      "name": "BuyOrderFullfilled",
      "type": "event"
    },
    {
      "anonymous": false,
      "inputs": [
        {
          "indexed": true,
          "name": "_symbolIndex",
          "type": "uint256"
        },
        {
          "indexed": false,
          "name": "_priceInWei",
          "type": "uint256"
        },
        {
          "indexed": false,
          "name": "_orederKey",
          "type": "uint256"
        }
      ],
      "name": "BuyOrderCancelled",
      "type": "event"
    },
    {
      "anonymous": false,
      "inputs": [
        {
          "indexed": false,
          "name": "_symbolIndex",
          "type": "uint256"
        },
        {
          "indexed": false,
          "name": "_token",
          "type": "string"
        },
        {
          "indexed": false,
          "name": "_time",
          "type": "uint256"
        }
      ],
      "name": "TokenAdded",
      "type": "event"
    },
    {
      "anonymous": false,
      "inputs": [
        {
          "indexed": true,
          "name": "_from",
          "type": "address"
        },
        {
          "indexed": true,
          "name": "_to",
          "type": "address"
        }
      ],
      "name": "OwnershipTransferred",
      "type": "event"
    }
  ],
  "bytecode": "0x6060604052341561000f57600080fd5b336000806101000a81548173ffffffffffffffffffffffffffffffffffffffff021916908373ffffffffffffffffffffffffffffffffffffffff160217905550611fd38061005e6000396000f3006060604052600436106100f1576000357c0100000000000000000000000000000000000000000000000000000000900463ffffffff1680631a8eb72b146100f657806333ad57e41461011f5780633a51d246146101855780635a53af5e146101f65780635ab8ea331461020057806367fee8b41461026f5780636912fcf7146102e657806379ba50971461033d5780638da5cb5b146103525780638ea00818146103a7578063aa6ca8081461041c578063b0b22c2c146104ce578063ba90728a1461054a578063c97a413a1461056d578063cfb51928146105d3578063d4ee1d901461064c578063f2fde38b146106a1575b600080fd5b341561010157600080fd5b6101096106da565b6040518082815260200191505060405180910390f35b341561012a57600080fd5b610183600480803590602001908201803590602001908080601f01602080910402602001604051908101604052809392919081815260200183838082843782019150505050505091908035906020019091905050610721565b005b341561019057600080fd5b6101e0600480803590602001908201803590602001908080601f016020809104026020016040519081016040528093929190818152602001838380828437820191505050505050919050506109b6565b6040518082815260200191505060405180910390f35b6101fe610a36565b005b341561020b57600080fd5b61026d600480803590602001908201803590602001908080601f01602080910402602001604051908101604052809392919081815260200183838082843782019150505050505091908035906020019091908035906020019091905050610b23565b005b341561027a57600080fd5b6102ca600480803590602001908201803590602001908080601f01602080910402602001604051908101604052809392919081815260200183838082843782019150505050505091905050610d10565b604051808260ff1660ff16815260200191505060405180910390f35b34156102f157600080fd5b61033b600480803560ff1690602001909190803590602001909190803590602001909190803573ffffffffffffffffffffffffffffffffffffffff16906020019091905050610f71565b005b341561034857600080fd5b61035061136b565b005b341561035d57600080fd5b61036561150a565b604051808273ffffffffffffffffffffffffffffffffffffffff1673ffffffffffffffffffffffffffffffffffffffff16815260200191505060405180910390f35b34156103b257600080fd5b610402600480803590602001908201803590602001908080601f0160208091040260200160405190810160405280939291908181526020018383808284378201915050505050509190505061152f565b604051808215151515815260200191505060405180910390f35b341561042757600080fd5b61042f611547565b604051808060200180602001838103835285818151815260200191508051906020019060200280838360005b8381101561047657808201518184015260208101905061045b565b50505050905001838103825284818151815260200191508051906020019060200280838360005b838110156104b857808201518184015260208101905061049d565b5050505090500194505050505060405180910390f35b34156104d957600080fd5b610548600480803590602001908201803590602001908080601f0160208091040260200160405190810160405280939291908181526020018383808284378201915050505050509190803573ffffffffffffffffffffffffffffffffffffffff16906020019091905050611770565b005b341561055557600080fd5b61056b60048080359060200190919050506119ab565b005b341561057857600080fd5b6105d1600480803590602001908201803590602001908080601f01602080910402602001604051908101604052809392919081815260200183838082843782019150505050505091908035906020019091905050611ad9565b005b34156105de57600080fd5b61062e600480803590602001908201803590602001908080601f01602080910402602001604051908101604052809392919081815260200183838082843782019150505050505091905050611d67565b60405180826000191660001916815260200191505060405180910390f35b341561065757600080fd5b61065f611d98565b604051808273ffffffffffffffffffffffffffffffffffffffff1673ffffffffffffffffffffffffffffffffffffffff16815260200191505060405180910390f35b34156106ac57600080fd5b6106d8600480803573ffffffffffffffffffffffffffffffffffffffff16906020019091905050611dbe565b005b6000600560003373ffffffffffffffffffffffffffffffffffffffff1673ffffffffffffffffffffffffffffffffffffffff16815260200190815260200160002054905090565b600080600061072f85610d10565b925060008360ff161415151561074457600080fd5b6107ad84600460003373ffffffffffffffffffffffffffffffffffffffff1673ffffffffffffffffffffffffffffffffffffffff16815260200190815260200160002060008660ff1660ff16815260200190815260200160002054611e5d90919063ffffffff16565b9150600260008460ff1660ff16815260200190815260200160002060000160009054906101000a900473ffffffffffffffffffffffffffffffffffffffff169050600115158173ffffffffffffffffffffffffffffffffffffffff166323b872dd3330886000604051602001526040518463ffffffff167c0100000000000000000000000000000000000000000000000000000000028152600401808473ffffffffffffffffffffffffffffffffffffffff1673ffffffffffffffffffffffffffffffffffffffff1681526020018373ffffffffffffffffffffffffffffffffffffffff1673ffffffffffffffffffffffffffffffffffffffff1681526020018281526020019350505050602060405180830381600087803b15156108d157600080fd5b6102c65a03f115156108e257600080fd5b5050506040518051905015151415156108fa57600080fd5b81600460003373ffffffffffffffffffffffffffffffffffffffff1673ffffffffffffffffffffffffffffffffffffffff16815260200190815260200160002060008560ff1660ff168152602001908152602001600020819055508260ff163373ffffffffffffffffffffffffffffffffffffffff167ff450103f3d68007a65908de06ffae68368dda06838f65ed10309ccd3f2788b668642604051808381526020018281526020019250505060405180910390a35050505050565b6000806109c283610d10565b905060008160ff16141515156109d757600080fd5b600460003373ffffffffffffffffffffffffffffffffffffffff1673ffffffffffffffffffffffffffffffffffffffff16815260200190815260200160002060008260ff1660ff16815260200190815260200160002054915050919050565b610a8834600560003373ffffffffffffffffffffffffffffffffffffffff1673ffffffffffffffffffffffffffffffffffffffff16815260200190815260200160002054611e5d90919063ffffffff16565b600560003373ffffffffffffffffffffffffffffffffffffffff1673ffffffffffffffffffffffffffffffffffffffff168152602001908152602001600020819055503373ffffffffffffffffffffffffffffffffffffffff167ffae570aafc29f1091fc10459d8172aecaed5f12a411cfc1869bbd72357865c1e3442604051808381526020018281526020019250505060405180910390a2565b600080610b2f85610d10565b915060008260ff1614151515610b4457600080fd5b610b578484611e7990919063ffffffff16565b9050600081111515610b6857600080fd5b610bba81600560003373ffffffffffffffffffffffffffffffffffffffff1673ffffffffffffffffffffffffffffffffffffffff16815260200190815260200160002054611eaa90919063ffffffff16565b600560003373ffffffffffffffffffffffffffffffffffffffff1673ffffffffffffffffffffffffffffffffffffffff168152602001908152602001600020819055506000600260008460ff1660ff168152602001908152602001600020600901541480610c43575083600260008460ff1660ff16815260200190815260200160002060070154115b15610d0857610c5482858533610f71565b8160ff167f2ef51fa215957689865f55575d7d89840bee8fce54b23ef826fea1a304acdd3f338587600260008860ff1660ff16815260200190815260200160002060020160008a815260200190815260200160002060040154604051808573ffffffffffffffffffffffffffffffffffffffff1673ffffffffffffffffffffffffffffffffffffffff16815260200184815260200183815260200182815260200194505050505060405180910390a2610d09565b5b5050505050565b600080600190505b600360009054906101000a900460ff1660ff168160ff16111515610f6657600260008260ff1660ff1681526020019081526020016000206001018054600181600116156101000203166002900480601f016020809104026020016040519081016040528092919081815260200182805460018160011615610100020316600290048015610de65780601f10610dbb57610100808354040283529160200191610de6565b820191906000526020600020905b815481529060010190602001808311610dc957829003601f168201915b505050505073__StringUtils___________________________6346bdca9a9091856000604051602001526040518363ffffffff167c0100000000000000000000000000000000000000000000000000000000028152600401808060200180602001838103835285818151815260200191508051906020019080838360005b83811015610e80578082015181840152602081019050610e65565b50505050905090810190601f168015610ead5780820380516001836020036101000a031916815260200191505b50838103825284818151815260200191508051906020019080838360005b83811015610ee6578082015181840152602081019050610ecb565b50505050905090810190601f168015610f135780820380516001836020036101000a031916815260200191505b5094505050505060206040518083038186803b1515610f3157600080fd5b6102c65a03f41515610f4257600080fd5b5050506040518051905015610f5957809150610f6b565b8080600101915050610d18565b600091505b50919050565b600080600260008760ff1660ff16815260200190815260200160002060050154141561117a5783600260008760ff1660ff1681526020019081526020016000206003018190555083600260008760ff1660ff16815260200190815260200160002060040181905550600260008660ff1660ff16815260200190815260200160002060050160008154809291906001019190505550600260008660ff1660ff168152602001908152602001600020600201600085815260200190815260200160002060030160008154809291906001019190505550600260008660ff1660ff16815260200190815260200160002060020160008581526020019081526020016000206004016000815480929190600101919050555060408051908101604052808481526020018373ffffffffffffffffffffffffffffffffffffffff16815250600260008760ff1660ff16815260200190815260200160002060020160008681526020019081526020016000206002016000600260008960ff1660ff16815260200190815260200160002060020160008881526020019081526020016000206004015481526020019081526020016000206000820151816000015560208201518160010160006101000a81548173ffffffffffffffffffffffffffffffffffffffff021916908373ffffffffffffffffffffffffffffffffffffffff160217905550905050611364565b600260008660ff1660ff1681526020019081526020016000206004015490505b80841080156111da57506000600260008760ff1660ff16815260200190815260200160002060020160008381526020019081526020016000206000015414155b1561121757600260008660ff1660ff168152602001908152602001600020600201600082815260200190815260200160002060000154905061119a565b8381111561122457611363565b8084141561136157600260008660ff1660ff16815260200190815260200160002060020160008581526020019081526020016000206004016000815480929190600101919050555060408051908101604052808481526020018373ffffffffffffffffffffffffffffffffffffffff16815250600260008760ff1660ff16815260200190815260200160002060020160008681526020019081526020016000206002016000600260008960ff1660ff16815260200190815260200160002060020160008881526020019081526020016000206004015481526020019081526020016000206000820151816000015560208201518160010160006101000a81548173ffffffffffffffffffffffffffffffffffffffff021916908373ffffffffffffffffffffffffffffffffffffffff160217905550905050611362565b5b5b5b5050505050565b600160009054906101000a900473ffffffffffffffffffffffffffffffffffffffff1673ffffffffffffffffffffffffffffffffffffffff163373ffffffffffffffffffffffffffffffffffffffff161415156113c757600080fd5b600160009054906101000a900473ffffffffffffffffffffffffffffffffffffffff1673ffffffffffffffffffffffffffffffffffffffff166000809054906101000a900473ffffffffffffffffffffffffffffffffffffffff1673ffffffffffffffffffffffffffffffffffffffff167f8be0079c531659141344cd1fd0a4f28419497f9722a3daafe3b4186f6b6457e060405160405180910390a3600160009054906101000a900473ffffffffffffffffffffffffffffffffffffffff166000806101000a81548173ffffffffffffffffffffffffffffffffffffffff021916908373ffffffffffffffffffffffffffffffffffffffff1602179055506000600160006101000a81548173ffffffffffffffffffffffffffffffffffffffff021916908373ffffffffffffffffffffffffffffffffffffffff160217905550565b6000809054906101000a900473ffffffffffffffffffffffffffffffffffffffff1681565b60008061153b83610d10565b60ff1614159050919050565b61154f611ec6565b611557611eda565b6000600360009054906101000a900460ff1660ff166040518059106115795750595b90808252806020026020018201604052509250600360009054906101000a900460ff1660ff166040518059106115ac5750595b90808252806020026020018201604052509150600190505b600360009054906101000a900460ff1660ff168160ff161115156117655761169f600260008360ff1660ff1681526020019081526020016000206001018054600181600116156101000203166002900480601f0160208091040260200160405190810160405280929190818152602001828054600181600116156101000203166002900480156116955780601f1061166a57610100808354040283529160200191611695565b820191906000526020600020905b81548152906001019060200180831161167857829003601f168201915b5050505050611d67565b836001830360ff168151811015156116b357fe5b906020019060200201906000191690816000191681525050600260008260ff1660ff16815260200190815260200160002060000160009054906101000a900473ffffffffffffffffffffffffffffffffffffffff16826001830360ff1681518110151561171c57fe5b9060200190602002019073ffffffffffffffffffffffffffffffffffffffff16908173ffffffffffffffffffffffffffffffffffffffff168152505080806001019150506115c4565b828292509250509091565b6000809054906101000a900473ffffffffffffffffffffffffffffffffffffffff1673ffffffffffffffffffffffffffffffffffffffff163373ffffffffffffffffffffffffffffffffffffffff161415156117cb57600080fd5b6117d48261152f565b1580156117f4575060ff600360009054906101000a900460ff1660ff1614155b801561180257506020825111155b151561180d57600080fd5b6003600081819054906101000a900460ff168092919060010191906101000a81548160ff021916908360ff160217905550508160026000600360009054906101000a900460ff1660ff1660ff168152602001908152602001600020600101908051906020019061187e929190611eee565b508060026000600360009054906101000a900460ff1660ff1660ff16815260200190815260200160002060000160006101000a81548173ffffffffffffffffffffffffffffffffffffffff021916908373ffffffffffffffffffffffffffffffffffffffff1602179055507ff7e000085d12a04e401e1cd12c8c06bba7997ca081c9874eec34621f4c9a1991600360009054906101000a900460ff168342604051808460ff16815260200180602001838152602001828103825284818151815260200191508051906020019080838360005b8381101561196b578082015181840152602081019050611950565b50505050905090810190601f1680156119985780820380516001836020036101000a031916815260200191505b5094505050505060405180910390a15050565b6119fd81600560003373ffffffffffffffffffffffffffffffffffffffff1673ffffffffffffffffffffffffffffffffffffffff16815260200190815260200160002054611eaa90919063ffffffff16565b600560003373ffffffffffffffffffffffffffffffffffffffff1673ffffffffffffffffffffffffffffffffffffffff168152602001908152602001600020819055503373ffffffffffffffffffffffffffffffffffffffff166108fc829081150290604051600060405180830381858888f193505050501515611a8057600080fd5b3373ffffffffffffffffffffffffffffffffffffffff167f0b013bf6519f01fb2765ca391d4158648ae17a9f0ce34e81143440a0e9b2447e8242604051808381526020018281526020019250505060405180910390a250565b6000806000611ae785610d10565b925060008360ff1614151515611afc57600080fd5b611b6584600460003373ffffffffffffffffffffffffffffffffffffffff1673ffffffffffffffffffffffffffffffffffffffff16815260200190815260200160002060008660ff1660ff16815260200190815260200160002054611eaa90919063ffffffff16565b9150600260008460ff1660ff16815260200190815260200160002060000160009054906101000a900473ffffffffffffffffffffffffffffffffffffffff1690508073ffffffffffffffffffffffffffffffffffffffff166323b872dd3033876000604051602001526040518463ffffffff167c0100000000000000000000000000000000000000000000000000000000028152600401808473ffffffffffffffffffffffffffffffffffffffff1673ffffffffffffffffffffffffffffffffffffffff1681526020018373ffffffffffffffffffffffffffffffffffffffff1673ffffffffffffffffffffffffffffffffffffffff1681526020018281526020019350505050602060405180830381600087803b1515611c8557600080fd5b6102c65a03f11515611c9657600080fd5b505050604051805190501515611cab57600080fd5b81600460003373ffffffffffffffffffffffffffffffffffffffff1673ffffffffffffffffffffffffffffffffffffffff16815260200190815260200160002060008560ff1660ff168152602001908152602001600020819055508260ff163373ffffffffffffffffffffffffffffffffffffffff167f6f19347ce7472bdd945ded325129768a32d7ecee0888cbc4c652e70544f8904e8642604051808381526020018281526020019250505060405180910390a35050505050565b6000611d71611f6e565b829050600081511415611d8a5760006001029150611d92565b602083015191505b50919050565b600160009054906101000a900473ffffffffffffffffffffffffffffffffffffffff1681565b6000809054906101000a900473ffffffffffffffffffffffffffffffffffffffff1673ffffffffffffffffffffffffffffffffffffffff163373ffffffffffffffffffffffffffffffffffffffff16141515611e1957600080fd5b80600160006101000a81548173ffffffffffffffffffffffffffffffffffffffff021916908373ffffffffffffffffffffffffffffffffffffffff16021790555050565b60008183019050828110151515611e7357600080fd5b92915050565b600081830290506000831480611e995750818382811515611e9657fe5b04145b1515611ea457600080fd5b92915050565b6000828211151515611ebb57600080fd5b818303905092915050565b602060405190810160405280600081525090565b602060405190810160405280600081525090565b828054600181600116156101000203166002900490600052602060002090601f016020900481019282601f10611f2f57805160ff1916838001178555611f5d565b82800160010185558215611f5d579182015b82811115611f5c578251825591602001919060010190611f41565b5b509050611f6a9190611f82565b5090565b602060405190810160405280600081525090565b611fa491905b80821115611fa0576000816000905550600101611f88565b5090565b905600a165627a7a7230582015806a07b22462401bea0edaca1d579fda7a17bde03c2c48a0ce59f02cdc22cf0029",
  "source": "pragma solidity ^0.4.18;\n\nimport \"./Owned.sol\";\nimport \"./StringUtils.sol\";\nimport \"./SafeMath.sol\";\nimport {ERC20Interface} from \"./FixedSupplyToken.sol\";\n\ncontract Exchange is Owned {\n\t\n\tusing SafeMath for uint;\n\t\n\tfunction Exchange(){\n\t\n\t}\n\t\n\tevent TokenDeposit(address indexed _from, uint indexed _symbolIndex, uint _amount, uint _time);\n\tevent TokenWithdrawal(address indexed _to, uint indexed _symbolIndex, uint _amount, uint _time);\n\tevent EthDeposit(address indexed _from, uint _amount, uint _time);\n\tevent EthWithdrawal(address indexed _from, uint _amount, uint _time);\n\t\n\tevent LimitSellOrderCreated(uint indexed _symbolIndex, address _who, uint _amount, uint _priceInWei, uint _orederKey);\n\tevent SellOrderFullfilled(uint indexed _symbolIndex, uint _amount, uint _priceInWei, uint _orederKey);\n\tevent SellOrderCancelled(uint indexed _symbolIndex, uint _priceInWei, uint _orederKey);\n\t\n\tevent LimitBuyOrderCreated(uint indexed _symbolIndex, address _who, uint _amount, uint _priceInWei, uint _orederKey);\n\tevent BuyOrderFullfilled(uint indexed _symbolIndex, uint _amount, uint _priceInWei, uint _orederKey);\n\tevent BuyOrderCancelled(uint indexed _symbolIndex, uint _priceInWei, uint _orederKey);\n\t\n\tevent TokenAdded(uint _symbolIndex, string _token, uint _time);\n\t\n\tusing StringUtils for string;\n\t\n\tstruct Offer {\n\t\t\n\t\tuint amount;\n\t\taddress who;\n\t\t\n\t}\n\t\n\tstruct OrderBook {\n\t\t\n\t\tuint higherPrice;\n\t\tuint lowerPrice;\n\t\tmapping(uint => Offer) offers;\n\t\tuint offers_key;\n\t\tuint offers_length;\n\t\t\n\t}\n\t\n\tstruct Token {\n\t\t\n\t\taddress tokenContract;\n\t\tstring symbolName;\n\t\t\n\t\tmapping(uint => OrderBook) buyBook;\n\t\t\n\t\tuint curBuyPrice;\n\t\tuint lowestBuyPrice;\n\t\tuint amountBuyPrices;\n\t\t\n\t\tmapping(uint => OrderBook) sellBook;\n\t\t\n\t\tuint curSellPrice;\n\t\tuint highestSellPrice;\n\t\tuint amountSellPrices;\n\t\t\n\t}\n\t\n\tmapping(uint8 => Token) tokens;\n\tuint8 symbolNameIndex;\n\t\n\t\n\tmapping(address => mapping(uint8 => uint)) tokenBalanceForAddress;\n\tmapping(address => uint)ethBalanceForAddress;\n\t\n\t\n\tfunction stringToBytes32(string memory source) returns (bytes32 result) {\n\t\tbytes memory tempEmptyStringTest = bytes(source);\n\t\tif (tempEmptyStringTest.length == 0) {\n\t\t\treturn 0x0;\n\t\t}\n\t\t\n\t\tassembly {\n\t\t\tresult := mload(add(source, 32))\n\t\t}\n\t}\n\t\n\tfunction buyToken(string symbolName, uint priceInWei, uint amount){\n\t\tuint8 tokenIndex = getSymbolIndex(symbolName);\n\t\trequire(tokenIndex != 0);\n\t\t\n\t\t\n\t\tuint totalAmountEthRequired = amount.mul(priceInWei);\n\t\trequire(totalAmountEthRequired > 0);\n\t\t\n\t\tethBalanceForAddress[msg.sender] = ethBalanceForAddress[msg.sender].sub(totalAmountEthRequired);\n\t\t\n\t\tif (tokens[tokenIndex].amountSellPrices == 0 || tokens[tokenIndex].curSellPrice > priceInWei) {\n\t\t\taddBuyOffer(tokenIndex, priceInWei, amount, msg.sender);\n\t\t\tLimitBuyOrderCreated(tokenIndex, msg.sender, amount, priceInWei, tokens[tokenIndex].buyBook[priceInWei].offers_length);\n\t\t\t\n\t\t}\n\t\telse {\n\t\t\n\t\t\n\t\t}\n\t\t\n\t}\n\t\n\t\n\tfunction addBuyOffer(uint8 tokenIndex, uint priceInWei, uint amount, address who)\n\t{\n\t\tif (tokens[tokenIndex].amountBuyPrices == 0) {\n\t\t\ttokens[tokenIndex].curBuyPrice = priceInWei;\n\t\t\ttokens[tokenIndex].lowestBuyPrice = priceInWei;\n\t\t\ttokens[tokenIndex].amountBuyPrices++;\n\t\t\ttokens[tokenIndex].buyBook[priceInWei].offers_key++;\n\t\t\ttokens[tokenIndex].buyBook[priceInWei].offers_length++;\n\t\t\ttokens[tokenIndex].buyBook[priceInWei].offers[tokens[tokenIndex].buyBook[priceInWei].offers_length] = Offer(amount, who);\n\t\t}\n\t\telse\n\t\t{\n\t\t\t\n\t\t\tuint price = tokens[tokenIndex].lowestBuyPrice;\n\t\t\t\n\t\t\twhile (priceInWei < price && tokens[tokenIndex].buyBook[price].higherPrice != 0) {\n\t\t\t\tprice = tokens[tokenIndex].buyBook[price].higherPrice;\n\t\t\t}\n\t\t\t\n\t\t\tif (price > priceInWei)\n\t\t\t{\n\t\t\t\n\t\t\t}\n\t\t\telse\n\t\t\t{\n\t\t\t\tif (priceInWei == price)\n\t\t\t\t{\n\t\t\t\t\ttokens[tokenIndex].buyBook[priceInWei].offers_length++;\n\t\t\t\t\ttokens[tokenIndex].buyBook[priceInWei].offers[tokens[tokenIndex].buyBook[priceInWei].offers_length] = Offer(amount, who);\n\t\t\t\t}\n\t\t\t\telse\n\t\t\t\t{\n\t\t\t\t\n\t\t\t\t\n\t\t\t\t}\n\t\t\t}\n\t\t\t\n\t\t\t\n\t\t}\n\t\t\n\t}\n\t\n\tfunction depositEither() payable {\n\t\tethBalanceForAddress[msg.sender] = ethBalanceForAddress[msg.sender].add(msg.value);\n\t\tEthDeposit(msg.sender, msg.value, now);\n\t}\n\t\n\tfunction withdrawEither(uint amountInWei){\n\t\tethBalanceForAddress[msg.sender] = ethBalanceForAddress[msg.sender].sub(amountInWei);\n\t\tmsg.sender.transfer(amountInWei);\n\t\tEthWithdrawal(msg.sender, amountInWei, now);\n\t}\n\t\n\tfunction getEthBalanceInWei() constant returns (uint){\n\t\treturn ethBalanceForAddress[msg.sender];\n\t}\n\t\n\tfunction depositToken(string symbolName, uint amount)\n\t{\n\t\tuint8 tokenIndex = getSymbolIndex(symbolName);\n\t\trequire(tokenIndex != 0);\n\t\tuint newBalance = tokenBalanceForAddress[msg.sender][tokenIndex].add(amount);\n\t\t\n\t\tERC20Interface token = ERC20Interface(tokens[tokenIndex].tokenContract);\n\t\trequire(token.transferFrom(msg.sender, address(this), amount) == true);\n\t\t\n\t\ttokenBalanceForAddress[msg.sender][tokenIndex] = newBalance;\n\t\tTokenDeposit(msg.sender, tokenIndex, amount, now);\n\t}\n\t\n\tfunction withdrawToken(string symbolName, uint amount)\n\t{\n\t\tuint8 tokenIndex = getSymbolIndex(symbolName);\n\t\trequire(tokenIndex != 0);\n\t\tuint newBalance = tokenBalanceForAddress[msg.sender][tokenIndex].sub(amount);\n\t\t\n\t\tERC20Interface token = ERC20Interface(tokens[tokenIndex].tokenContract);\n\t\trequire(token.transferFrom(address(this), msg.sender, amount));\n\t\t\n\t\ttokenBalanceForAddress[msg.sender][tokenIndex] = newBalance;\n\t\tTokenWithdrawal(msg.sender, tokenIndex, amount, now);\n\t\t\n\t}\n\t\n\tfunction getBalance(string symbolName) constant returns (uint)\n\t{\n\t\tuint8 tokenIndex = getSymbolIndex(symbolName);\n\t\trequire(tokenIndex != 0);\n\t\t\n\t\treturn tokenBalanceForAddress[msg.sender][tokenIndex];\n\t}\n\t\n\t\n\tfunction addToken(string symbolName, address erc20TokenAddress) onlyOwner {\n\t\trequire(!hasToken(symbolName) && symbolNameIndex != 255 && bytes(symbolName).length <= 32);\n\t\tsymbolNameIndex++;\n\t\ttokens[symbolNameIndex].symbolName = symbolName;\n\t\ttokens[symbolNameIndex].tokenContract = erc20TokenAddress;\n\t\tTokenAdded(symbolNameIndex, symbolName, now);\n\t}\n\t\n\tfunction getTokens() constant returns (bytes32[]  names, address[] addresses){\n\t\tnames = new bytes32[](symbolNameIndex);\n\t\taddresses = new address[](symbolNameIndex);\n\t\t\n\t\tfor (uint8 i = 1; i <= symbolNameIndex; i++) {\n\t\t\tnames[i - 1] = stringToBytes32(tokens[i].symbolName);\n\t\t\taddresses[i - 1] = tokens[i].tokenContract;\n\t\t}\n\t\t\n\t\treturn (names, addresses);\n\t}\n\t\n\tfunction hasToken(string symbolName) returns (bool){\n\t\treturn (getSymbolIndex(symbolName) != 0);\n\t}\n\t\n\t\n\tfunction getSymbolIndex(string symbolName)  returns (uint8){\n\t\tfor (uint8 i = 1; i <= symbolNameIndex; i++) {\n\t\t\tif (tokens[i].symbolName.equal(symbolName)) {\n\t\t\t\treturn i;\n\t\t\t}\n\t\t}\n\t\treturn 0;\n\t}\n\t\n}",
  "sourcePath": "/home/andrew/eth-projects/contracts/Exchange.sol",
  "compiler": {
    "name": "solc",
    "version": "0.4.18+commit.9cf6e910.Emscripten.clang"
  },
  "schemaVersion": "1.0.1",
  "updatedAt": "2018-02-10T16:49:23.877Z"
}